{
  "contractName": "NFTbeats",
  "abi": [
    {
      "inputs": [],
      "stateMutability": "nonpayable",
      "type": "constructor"
    },
    {
      "anonymous": false,
      "inputs": [
        {
          "indexed": true,
          "internalType": "address",
          "name": "owner",
          "type": "address"
        },
        {
          "indexed": true,
          "internalType": "address",
          "name": "approved",
          "type": "address"
        },
        {
          "indexed": true,
          "internalType": "uint256",
          "name": "tokenId",
          "type": "uint256"
        }
      ],
      "name": "Approval",
      "type": "event"
    },
    {
      "anonymous": false,
      "inputs": [
        {
          "indexed": true,
          "internalType": "address",
          "name": "owner",
          "type": "address"
        },
        {
          "indexed": true,
          "internalType": "address",
          "name": "operator",
          "type": "address"
        },
        {
          "indexed": false,
          "internalType": "bool",
          "name": "approved",
          "type": "bool"
        }
      ],
      "name": "ApprovalForAll",
      "type": "event"
    },
    {
      "anonymous": false,
      "inputs": [
        {
          "indexed": true,
          "internalType": "address",
          "name": "from",
          "type": "address"
        },
        {
          "indexed": true,
          "internalType": "address",
          "name": "to",
          "type": "address"
        },
        {
          "indexed": true,
          "internalType": "uint256",
          "name": "tokenId",
          "type": "uint256"
        }
      ],
      "name": "Transfer",
      "type": "event"
    },
    {
      "anonymous": false,
      "inputs": [
        {
          "indexed": false,
          "internalType": "uint256",
          "name": "id",
          "type": "uint256"
        },
        {
          "indexed": false,
          "internalType": "address",
          "name": "buyer",
          "type": "address"
        }
      ],
      "name": "boughtTrack",
      "type": "event"
    },
    {
      "anonymous": false,
      "inputs": [
        {
          "indexed": false,
          "internalType": "uint256",
          "name": "id",
          "type": "uint256"
        },
        {
          "indexed": false,
          "internalType": "string",
          "name": "name",
          "type": "string"
        },
        {
          "indexed": false,
          "internalType": "address",
          "name": "owner",
          "type": "address"
        }
      ],
      "name": "createdTrack",
      "type": "event"
    },
    {
      "anonymous": false,
      "inputs": [
        {
          "indexed": false,
          "internalType": "uint256",
          "name": "id",
          "type": "uint256"
        },
        {
          "indexed": false,
          "internalType": "uint256",
          "name": "trackID",
          "type": "uint256"
        },
        {
          "indexed": false,
          "internalType": "uint256",
          "name": "amount",
          "type": "uint256"
        },
        {
          "indexed": false,
          "internalType": "bool",
          "name": "approved",
          "type": "bool"
        }
      ],
      "name": "offerApproved",
      "type": "event"
    },
    {
      "anonymous": false,
      "inputs": [
        {
          "indexed": false,
          "internalType": "uint256",
          "name": "id",
          "type": "uint256"
        },
        {
          "indexed": false,
          "internalType": "uint256",
          "name": "newPrice",
          "type": "uint256"
        },
        {
          "indexed": false,
          "internalType": "bool",
          "name": "listed",
          "type": "bool"
        }
      ],
      "name": "setTrackPrice",
      "type": "event"
    },
    {
      "inputs": [
        {
          "internalType": "address",
          "name": "to",
          "type": "address"
        },
        {
          "internalType": "uint256",
          "name": "tokenId",
          "type": "uint256"
        }
      ],
      "name": "approve",
      "outputs": [],
      "stateMutability": "nonpayable",
      "type": "function"
    },
    {
      "inputs": [
        {
          "internalType": "address",
          "name": "owner",
          "type": "address"
        }
      ],
      "name": "balanceOf",
      "outputs": [
        {
          "internalType": "uint256",
          "name": "",
          "type": "uint256"
        }
      ],
      "stateMutability": "view",
      "type": "function",
      "constant": true
    },
    {
      "inputs": [],
      "name": "baseURI",
      "outputs": [
        {
          "internalType": "string",
          "name": "",
          "type": "string"
        }
      ],
      "stateMutability": "view",
      "type": "function",
      "constant": true
    },
    {
      "inputs": [
        {
          "internalType": "uint256",
          "name": "tokenId",
          "type": "uint256"
        }
      ],
      "name": "getApproved",
      "outputs": [
        {
          "internalType": "address",
          "name": "",
          "type": "address"
        }
      ],
      "stateMutability": "view",
      "type": "function",
      "constant": true
    },
    {
      "inputs": [
        {
          "internalType": "address",
          "name": "owner",
          "type": "address"
        },
        {
          "internalType": "address",
          "name": "operator",
          "type": "address"
        }
      ],
      "name": "isApprovedForAll",
      "outputs": [
        {
          "internalType": "bool",
          "name": "",
          "type": "bool"
        }
      ],
      "stateMutability": "view",
      "type": "function",
      "constant": true
    },
    {
      "inputs": [],
      "name": "name",
      "outputs": [
        {
          "internalType": "string",
          "name": "",
          "type": "string"
        }
      ],
      "stateMutability": "view",
      "type": "function",
      "constant": true
    },
    {
      "inputs": [],
      "name": "oCount",
      "outputs": [
        {
          "internalType": "uint256",
          "name": "",
          "type": "uint256"
        }
      ],
      "stateMutability": "view",
      "type": "function",
      "constant": true
    },
    {
      "inputs": [
        {
          "internalType": "uint256",
          "name": "",
          "type": "uint256"
        }
      ],
      "name": "offers",
      "outputs": [
        {
          "internalType": "uint256",
          "name": "id",
          "type": "uint256"
        },
        {
          "internalType": "uint256",
          "name": "trackID",
          "type": "uint256"
        },
        {
          "internalType": "uint256",
          "name": "offerAmount",
          "type": "uint256"
        },
        {
          "internalType": "address",
          "name": "bidder",
          "type": "address"
        },
        {
          "internalType": "address",
          "name": "auctioneer",
          "type": "address"
        },
        {
          "internalType": "bool",
          "name": "isApproved",
          "type": "bool"
        }
      ],
      "stateMutability": "view",
      "type": "function",
      "constant": true
    },
    {
      "inputs": [
        {
          "internalType": "uint256",
          "name": "tokenId",
          "type": "uint256"
        }
      ],
      "name": "ownerOf",
      "outputs": [
        {
          "internalType": "address",
          "name": "",
          "type": "address"
        }
      ],
      "stateMutability": "view",
      "type": "function",
      "constant": true
    },
    {
      "inputs": [
        {
          "internalType": "address",
          "name": "from",
          "type": "address"
        },
        {
          "internalType": "address",
          "name": "to",
          "type": "address"
        },
        {
          "internalType": "uint256",
          "name": "tokenId",
          "type": "uint256"
        }
      ],
      "name": "safeTransferFrom",
      "outputs": [],
      "stateMutability": "nonpayable",
      "type": "function"
    },
    {
      "inputs": [
        {
          "internalType": "address",
          "name": "from",
          "type": "address"
        },
        {
          "internalType": "address",
          "name": "to",
          "type": "address"
        },
        {
          "internalType": "uint256",
          "name": "tokenId",
          "type": "uint256"
        },
        {
          "internalType": "bytes",
          "name": "_data",
          "type": "bytes"
        }
      ],
      "name": "safeTransferFrom",
      "outputs": [],
      "stateMutability": "nonpayable",
      "type": "function"
    },
    {
      "inputs": [
        {
          "internalType": "address",
          "name": "operator",
          "type": "address"
        },
        {
          "internalType": "bool",
          "name": "approved",
          "type": "bool"
        }
      ],
      "name": "setApprovalForAll",
      "outputs": [],
      "stateMutability": "nonpayable",
      "type": "function"
    },
    {
      "inputs": [
        {
          "internalType": "bytes4",
          "name": "interfaceId",
          "type": "bytes4"
        }
      ],
      "name": "supportsInterface",
      "outputs": [
        {
          "internalType": "bool",
          "name": "",
          "type": "bool"
        }
      ],
      "stateMutability": "view",
      "type": "function",
      "constant": true
    },
    {
      "inputs": [],
      "name": "symbol",
      "outputs": [
        {
          "internalType": "string",
          "name": "",
          "type": "string"
        }
      ],
      "stateMutability": "view",
      "type": "function",
      "constant": true
    },
    {
      "inputs": [],
      "name": "tCount",
      "outputs": [
        {
          "internalType": "uint256",
          "name": "",
          "type": "uint256"
        }
      ],
      "stateMutability": "view",
      "type": "function",
      "constant": true
    },
    {
      "inputs": [
        {
          "internalType": "uint256",
          "name": "index",
          "type": "uint256"
        }
      ],
      "name": "tokenByIndex",
      "outputs": [
        {
          "internalType": "uint256",
          "name": "",
          "type": "uint256"
        }
      ],
      "stateMutability": "view",
      "type": "function",
      "constant": true
    },
    {
      "inputs": [
        {
          "internalType": "address",
          "name": "owner",
          "type": "address"
        },
        {
          "internalType": "uint256",
          "name": "index",
          "type": "uint256"
        }
      ],
      "name": "tokenOfOwnerByIndex",
      "outputs": [
        {
          "internalType": "uint256",
          "name": "",
          "type": "uint256"
        }
      ],
      "stateMutability": "view",
      "type": "function",
      "constant": true
    },
    {
      "inputs": [
        {
          "internalType": "uint256",
          "name": "tokenId",
          "type": "uint256"
        }
      ],
      "name": "tokenURI",
      "outputs": [
        {
          "internalType": "string",
          "name": "",
          "type": "string"
        }
      ],
      "stateMutability": "view",
      "type": "function",
      "constant": true
    },
    {
      "inputs": [],
      "name": "totalSupply",
      "outputs": [
        {
          "internalType": "uint256",
          "name": "",
          "type": "uint256"
        }
      ],
      "stateMutability": "view",
      "type": "function",
      "constant": true
    },
    {
      "inputs": [
        {
          "internalType": "uint256",
          "name": "",
          "type": "uint256"
        }
      ],
      "name": "tracks",
      "outputs": [
        {
          "internalType": "uint256",
          "name": "id",
          "type": "uint256"
        },
        {
          "internalType": "uint256",
          "name": "price",
          "type": "uint256"
        },
        {
          "internalType": "bool",
          "name": "isListed",
          "type": "bool"
        },
        {
          "internalType": "string",
          "name": "name",
          "type": "string"
        },
        {
          "internalType": "string",
          "name": "filecid",
          "type": "string"
        },
        {
          "internalType": "string",
          "name": "aName",
          "type": "string"
        },
        {
          "internalType": "address",
          "name": "artist",
          "type": "address"
        },
        {
          "internalType": "address payable",
          "name": "owner",
          "type": "address"
        }
      ],
      "stateMutability": "view",
      "type": "function",
      "constant": true
    },
    {
      "inputs": [
        {
          "internalType": "address",
          "name": "from",
          "type": "address"
        },
        {
          "internalType": "address",
          "name": "to",
          "type": "address"
        },
        {
          "internalType": "uint256",
          "name": "tokenId",
          "type": "uint256"
        }
      ],
      "name": "transferFrom",
      "outputs": [],
      "stateMutability": "nonpayable",
      "type": "function"
    },
    {
      "inputs": [
        {
          "internalType": "string",
          "name": "_name",
          "type": "string"
        }
      ],
      "name": "registerArtist",
      "outputs": [],
      "stateMutability": "nonpayable",
      "type": "function"
    },
    {
      "inputs": [
        {
          "internalType": "uint256",
          "name": "_id",
          "type": "uint256"
        }
      ],
      "name": "verifyCreator",
      "outputs": [
        {
          "internalType": "string",
          "name": "",
          "type": "string"
        },
        {
          "internalType": "address",
          "name": "",
          "type": "address"
        }
      ],
      "stateMutability": "view",
      "type": "function",
      "constant": true
    },
    {
      "inputs": [
        {
          "internalType": "string",
          "name": "_name",
          "type": "string"
        },
        {
          "internalType": "string",
          "name": "_filecid",
          "type": "string"
        }
      ],
      "name": "createTrack",
      "outputs": [],
      "stateMutability": "nonpayable",
      "type": "function"
    },
    {
      "inputs": [
        {
          "internalType": "uint256",
          "name": "_id",
          "type": "uint256"
        },
        {
          "internalType": "uint256",
          "name": "_price",
          "type": "uint256"
        }
      ],
      "name": "setPrice",
      "outputs": [],
      "stateMutability": "nonpayable",
      "type": "function"
    },
    {
      "inputs": [
        {
          "internalType": "uint256",
          "name": "_tid",
          "type": "uint256"
        },
        {
          "internalType": "uint256",
          "name": "_amount",
          "type": "uint256"
        }
      ],
      "name": "makeOffer",
      "outputs": [],
      "stateMutability": "payable",
      "type": "function",
      "payable": true
    },
    {
      "inputs": [
        {
          "internalType": "uint256",
          "name": "_id",
          "type": "uint256"
        }
      ],
      "name": "approveOffer",
      "outputs": [],
      "stateMutability": "nonpayable",
      "type": "function"
    },
    {
      "inputs": [
        {
          "internalType": "uint256",
          "name": "_id",
          "type": "uint256"
        }
      ],
      "name": "buyTrack",
      "outputs": [],
      "stateMutability": "payable",
      "type": "function",
      "payable": true
    }
  ],
  "bytecode": "0x60806040523480156200001157600080fd5b506040518060400160405280600881526020017f4e465462656174730000000000000000000000000000000000000000000000008152506040518060400160405280600581526020017f4245415453000000000000000000000000000000000000000000000000000000815250620000966301ffc9a760e01b6200011860201b60201c565b8160069080519060200190620000ae92919062000221565b508060079080519060200190620000c792919062000221565b50620000e06380ac58cd60e01b6200011860201b60201c565b620000f8635b5e139f60e01b6200011860201b60201c565b6200011063780e9d6360e01b6200011860201b60201c565b5050620002c7565b63ffffffff60e01b817bffffffffffffffffffffffffffffffffffffffffffffffffffffffff19161415620001b5576040517f08c379a000000000000000000000000000000000000000000000000000000000815260040180806020018281038252601c8152602001807f4552433136353a20696e76616c696420696e746572666163652069640000000081525060200191505060405180910390fd5b6001600080837bffffffffffffffffffffffffffffffffffffffffffffffffffffffff19167bffffffffffffffffffffffffffffffffffffffffffffffffffffffff1916815260200190815260200160002060006101000a81548160ff02191690831515021790555050565b828054600181600116156101000203166002900490600052602060002090601f016020900481019282601f106200026457805160ff191683800117855562000295565b8280016001018555821562000295579182015b828111156200029457825182559160200191906001019062000277565b5b509050620002a49190620002a8565b5090565b5b80821115620002c3576000816000905550600101620002a9565b5090565b61438d80620002d76000396000f3fe6080604052600436106101b75760003560e01c806370a08231116100ec578063a5d7c10a1161008a578063e5c1441111610064578063e5c1441114610da4578063e985e9c514610e75578063f3720cca14610efc578063f7d975771461105b576101b7565b8063a5d7c10a14610ba3578063b88d4fde14610bde578063c87b56dd14610cf0576101b7565b806395d89b41116100c657806395d89b41146108ab5780639a973fe51461093b578063a22cb46514610969578063a2e34586146109c6576101b7565b806370a08231146106de5780638a72ea6a146107435780639355d419146107e3576101b7565b80632f745c591161015957806353f9a8731161013357806353f9a873146105935780636352211e146105be5780636864c10a146106235780636c0360eb1461064e576101b7565b80632f745c591461045a57806342842e0e146104c95780634f6ccce714610544576101b7565b8063081812fc11610195578063081812fc146102f4578063095ea7b31461035957806318160ddd146103b457806323b872dd146103df576101b7565b806301ffc9a7146101bc57806305b7cdd31461022c57806306fdde0314610264575b600080fd5b3480156101c857600080fd5b50610214600480360360208110156101df57600080fd5b8101908080357bffffffffffffffffffffffffffffffffffffffffffffffffffffffff191690602001909291905050506110a0565b60405180821515815260200191505060405180910390f35b6102626004803603604081101561024257600080fd5b810190808035906020019092919080359060200190929190505050611107565b005b34801561027057600080fd5b5061027961133d565b6040518080602001828103825283818151815260200191508051906020019080838360005b838110156102b957808201518184015260208101905061029e565b50505050905090810190601f1680156102e65780820380516001836020036101000a031916815260200191505b509250505060405180910390f35b34801561030057600080fd5b5061032d6004803603602081101561031757600080fd5b81019080803590602001909291905050506113df565b604051808273ffffffffffffffffffffffffffffffffffffffff16815260200191505060405180910390f35b34801561036557600080fd5b506103b26004803603604081101561037c57600080fd5b81019080803573ffffffffffffffffffffffffffffffffffffffff1690602001909291908035906020019092919050505061147a565b005b3480156103c057600080fd5b506103c96115be565b6040518082815260200191505060405180910390f35b3480156103eb57600080fd5b506104586004803603606081101561040257600080fd5b81019080803573ffffffffffffffffffffffffffffffffffffffff169060200190929190803573ffffffffffffffffffffffffffffffffffffffff169060200190929190803590602001909291905050506115cf565b005b34801561046657600080fd5b506104b36004803603604081101561047d57600080fd5b81019080803573ffffffffffffffffffffffffffffffffffffffff16906020019092919080359060200190929190505050611645565b6040518082815260200191505060405180910390f35b3480156104d557600080fd5b50610542600480360360608110156104ec57600080fd5b81019080803573ffffffffffffffffffffffffffffffffffffffff169060200190929190803573ffffffffffffffffffffffffffffffffffffffff169060200190929190803590602001909291905050506116a0565b005b34801561055057600080fd5b5061057d6004803603602081101561056757600080fd5b81019080803590602001909291905050506116c0565b6040518082815260200191505060405180910390f35b34801561059f57600080fd5b506105a86116e3565b6040518082815260200191505060405180910390f35b3480156105ca57600080fd5b506105f7600480360360208110156105e157600080fd5b81019080803590602001909291905050506116e9565b604051808273ffffffffffffffffffffffffffffffffffffffff16815260200191505060405180910390f35b34801561062f57600080fd5b50610638611720565b6040518082815260200191505060405180910390f35b34801561065a57600080fd5b50610663611726565b6040518080602001828103825283818151815260200191508051906020019080838360005b838110156106a3578082015181840152602081019050610688565b50505050905090810190601f1680156106d05780820380516001836020036101000a031916815260200191505b509250505060405180910390f35b3480156106ea57600080fd5b5061072d6004803603602081101561070157600080fd5b81019080803573ffffffffffffffffffffffffffffffffffffffff1690602001909291905050506117c8565b6040518082815260200191505060405180910390f35b34801561074f57600080fd5b5061077c6004803603602081101561076657600080fd5b810190808035906020019092919050505061189d565b604051808781526020018681526020018581526020018473ffffffffffffffffffffffffffffffffffffffff1681526020018373ffffffffffffffffffffffffffffffffffffffff1681526020018215158152602001965050505050505060405180910390f35b3480156107ef57600080fd5b506108a96004803603602081101561080657600080fd5b810190808035906020019064010000000081111561082357600080fd5b82018360208201111561083557600080fd5b8035906020019184600183028401116401000000008311171561085757600080fd5b91908080601f016020809104026020016040519081016040528093929190818152602001838380828437600081840152601f19601f820116905080830192505050505050509192919290505050611926565b005b3480156108b757600080fd5b506108c061197d565b6040518080602001828103825283818151815260200191508051906020019080838360005b838110156109005780820151818401526020810190506108e5565b50505050905090810190601f16801561092d5780820380516001836020036101000a031916815260200191505b509250505060405180910390f35b6109676004803603602081101561095157600080fd5b8101908080359060200190929190505050611a1f565b005b34801561097557600080fd5b506109c46004803603604081101561098c57600080fd5b81019080803573ffffffffffffffffffffffffffffffffffffffff169060200190929190803515159060200190929190505050611ca9565b005b3480156109d257600080fd5b506109ff600480360360208110156109e957600080fd5b8101908080359060200190929190505050611e5f565b6040518089815260200188815260200187151581526020018060200180602001806020018673ffffffffffffffffffffffffffffffffffffffff1681526020018573ffffffffffffffffffffffffffffffffffffffff168152602001848103845289818151815260200191508051906020019080838360005b83811015610a93578082015181840152602081019050610a78565b50505050905090810190601f168015610ac05780820380516001836020036101000a031916815260200191505b50848103835288818151815260200191508051906020019080838360005b83811015610af9578082015181840152602081019050610ade565b50505050905090810190601f168015610b265780820380516001836020036101000a031916815260200191505b50848103825287818151815260200191508051906020019080838360005b83811015610b5f578082015181840152602081019050610b44565b50505050905090810190601f168015610b8c5780820380516001836020036101000a031916815260200191505b509b50505050505050505050505060405180910390f35b348015610baf57600080fd5b50610bdc60048036036020811015610bc657600080fd5b81019080803590602001909291905050506120bc565b005b348015610bea57600080fd5b50610cee60048036036080811015610c0157600080fd5b81019080803573ffffffffffffffffffffffffffffffffffffffff169060200190929190803573ffffffffffffffffffffffffffffffffffffffff1690602001909291908035906020019092919080359060200190640100000000811115610c6857600080fd5b820183602082011115610c7a57600080fd5b80359060200191846001830284011164010000000083111715610c9c57600080fd5b91908080601f016020809104026020016040519081016040528093929190818152602001838380828437600081840152601f19601f8201169050808301925050505050505091929192905050506121e6565b005b348015610cfc57600080fd5b50610d2960048036036020811015610d1357600080fd5b810190808035906020019092919050505061225e565b6040518080602001828103825283818151815260200191508051906020019080838360005b83811015610d69578082015181840152602081019050610d4e565b50505050905090810190601f168015610d965780820380516001836020036101000a031916815260200191505b509250505060405180910390f35b348015610db057600080fd5b50610ddd60048036036020811015610dc757600080fd5b810190808035906020019092919050505061252f565b60405180806020018373ffffffffffffffffffffffffffffffffffffffff168152602001828103825284818151815260200191508051906020019080838360005b83811015610e39578082015181840152602081019050610e1e565b50505050905090810190601f168015610e665780820380516001836020036101000a031916815260200191505b50935050505060405180910390f35b348015610e8157600080fd5b50610ee460048036036040811015610e9857600080fd5b81019080803573ffffffffffffffffffffffffffffffffffffffff169060200190929190803573ffffffffffffffffffffffffffffffffffffffff169060200190929190505050612711565b60405180821515815260200191505060405180910390f35b348015610f0857600080fd5b5061105960048036036040811015610f1f57600080fd5b8101908080359060200190640100000000811115610f3c57600080fd5b820183602082011115610f4e57600080fd5b80359060200191846001830284011164010000000083111715610f7057600080fd5b91908080601f016020809104026020016040519081016040528093929190818152602001838380828437600081840152601f19601f82011690508083019250505050505050919291929080359060200190640100000000811115610fd357600080fd5b820183602082011115610fe557600080fd5b8035906020019184600183028401116401000000008311171561100757600080fd5b91908080601f016020809104026020016040519081016040528093929190818152602001838380828437600081840152601f19601f8201169050808301925050505050505091929192905050506127a5565b005b34801561106757600080fd5b5061109e6004803603604081101561107e57600080fd5b810190808035906020019092919080359060200190929190505050612bfb565b005b6000806000837bffffffffffffffffffffffffffffffffffffffffffffffffffffffff19167bffffffffffffffffffffffffffffffffffffffffffffffffffffffff1916815260200190815260200160002060009054906101000a900460ff169050919050565b8160008111801561111a5750600a548111155b61112357600080fd5b600d60008481526020019081526020016000206001015482116111ae576040517f08c379a000000000000000000000000000000000000000000000000000000000815260040180806020018281038252600d8152602001807f496e76616c6964206f666665720000000000000000000000000000000000000081525060200191505060405180910390fd5b600b600081548092919060010191905055506040518060c00160405280600b5481526020018481526020018381526020013373ffffffffffffffffffffffffffffffffffffffff168152602001600d600086815260200190815260200160002060070160009054906101000a900473ffffffffffffffffffffffffffffffffffffffff1673ffffffffffffffffffffffffffffffffffffffff16815260200160001515815250600e6000600b54815260200190815260200160002060008201518160000155602082015181600101556040820151816002015560608201518160030160006101000a81548173ffffffffffffffffffffffffffffffffffffffff021916908373ffffffffffffffffffffffffffffffffffffffff16021790555060808201518160040160006101000a81548173ffffffffffffffffffffffffffffffffffffffff021916908373ffffffffffffffffffffffffffffffffffffffff16021790555060a08201518160040160146101000a81548160ff021916908315150217905550905050505050565b606060068054600181600116156101000203166002900480601f0160208091040260200160405190810160405280929190818152602001828054600181600116156101000203166002900480156113d55780601f106113aa576101008083540402835291602001916113d5565b820191906000526020600020905b8154815290600101906020018083116113b857829003601f168201915b5050505050905090565b60006113ea82612ce8565b61143f576040517f08c379a000000000000000000000000000000000000000000000000000000000815260040180806020018281038252602c815260200180614256602c913960400191505060405180910390fd5b6004600083815260200190815260200160002060009054906101000a900473ffffffffffffffffffffffffffffffffffffffff169050919050565b6000611485826116e9565b90508073ffffffffffffffffffffffffffffffffffffffff168373ffffffffffffffffffffffffffffffffffffffff16141561150c576040517f08c379a00000000000000000000000000000000000000000000000000000000081526004018080602001828103825260218152602001806143066021913960400191505060405180910390fd5b8073ffffffffffffffffffffffffffffffffffffffff1661152b612d05565b73ffffffffffffffffffffffffffffffffffffffff16148061155a575061155981611554612d05565b612711565b5b6115af576040517f08c379a00000000000000000000000000000000000000000000000000000000081526004018080602001828103825260388152602001806141a96038913960400191505060405180910390fd5b6115b98383612d0d565b505050565b60006115ca6002612dc6565b905090565b6115e06115da612d05565b82612ddb565b611635576040517f08c379a00000000000000000000000000000000000000000000000000000000081526004018080602001828103825260318152602001806143276031913960400191505060405180910390fd5b611640838383612ecf565b505050565b600061169882600160008673ffffffffffffffffffffffffffffffffffffffff1673ffffffffffffffffffffffffffffffffffffffff16815260200190815260200160002061311290919063ffffffff16565b905092915050565b6116bb838383604051806020016040528060008152506121e6565b505050565b6000806116d783600261312c90919063ffffffff16565b50905080915050919050565b600a5481565b60006117198260405180606001604052806029815260200161420b6029913960026131589092919063ffffffff16565b9050919050565b600b5481565b606060098054600181600116156101000203166002900480601f0160208091040260200160405190810160405280929190818152602001828054600181600116156101000203166002900480156117be5780601f10611793576101008083540402835291602001916117be565b820191906000526020600020905b8154815290600101906020018083116117a157829003601f168201915b5050505050905090565b60008073ffffffffffffffffffffffffffffffffffffffff168273ffffffffffffffffffffffffffffffffffffffff16141561184f576040517f08c379a000000000000000000000000000000000000000000000000000000000815260040180806020018281038252602a8152602001806141e1602a913960400191505060405180910390fd5b611896600160008473ffffffffffffffffffffffffffffffffffffffff1673ffffffffffffffffffffffffffffffffffffffff168152602001908152602001600020613177565b9050919050565b600e6020528060005260406000206000915090508060000154908060010154908060020154908060030160009054906101000a900473ffffffffffffffffffffffffffffffffffffffff16908060040160009054906101000a900473ffffffffffffffffffffffffffffffffffffffff16908060040160149054906101000a900460ff16905086565b80600c60003373ffffffffffffffffffffffffffffffffffffffff1673ffffffffffffffffffffffffffffffffffffffff1681526020019081526020016000209080519060200190611979929190614041565b5050565b606060078054600181600116156101000203166002900480601f016020809104026020016040519081016040528092919081815260200182805460018160011615610100020316600290048015611a155780601f106119ea57610100808354040283529160200191611a15565b820191906000526020600020905b8154815290600101906020018083116119f857829003601f168201915b5050505050905090565b80600081118015611a325750600a548111155b611a3b57600080fd5b6000600d600084815260200190815260200160002060070160009054906101000a900473ffffffffffffffffffffffffffffffffffffffff1673ffffffffffffffffffffffffffffffffffffffff163460405180600001905060006040518083038185875af1925050503d8060008114611ad1576040519150601f19603f3d011682016040523d82523d6000602084013e611ad6565b606091505b505090506001151581151514611b54576040517f08c379a00000000000000000000000000000000000000000000000000000000081526004018080602001828103825260088152602001807f4e6f742073656e7400000000000000000000000000000000000000000000000081525060200191505060405180910390fd5b611b95600d600085815260200190815260200160002060070160009054906101000a900473ffffffffffffffffffffffffffffffffffffffff1633856116a0565b33600d600085815260200190815260200160002060070160006101000a81548173ffffffffffffffffffffffffffffffffffffffff021916908373ffffffffffffffffffffffffffffffffffffffff1602179055506000600d600085815260200190815260200160002060020160006101000a81548160ff0219169083151502179055507f7ea941d0f3c76988413ca30e91d3306ccbc25d42204bce6d66e006cbe3a5898f83600d600086815260200190815260200160002060070160009054906101000a900473ffffffffffffffffffffffffffffffffffffffff16604051808381526020018273ffffffffffffffffffffffffffffffffffffffff1681526020019250505060405180910390a1505050565b611cb1612d05565b73ffffffffffffffffffffffffffffffffffffffff168273ffffffffffffffffffffffffffffffffffffffff161415611d52576040517f08c379a00000000000000000000000000000000000000000000000000000000081526004018080602001828103825260198152602001807f4552433732313a20617070726f766520746f2063616c6c65720000000000000081525060200191505060405180910390fd5b8060056000611d5f612d05565b73ffffffffffffffffffffffffffffffffffffffff1673ffffffffffffffffffffffffffffffffffffffff16815260200190815260200160002060008473ffffffffffffffffffffffffffffffffffffffff1673ffffffffffffffffffffffffffffffffffffffff16815260200190815260200160002060006101000a81548160ff0219169083151502179055508173ffffffffffffffffffffffffffffffffffffffff16611e0c612d05565b73ffffffffffffffffffffffffffffffffffffffff167f17307eab39ab6107e8899845ad3d59bd9653f200f220920489ca2b5937696c318360405180821515815260200191505060405180910390a35050565b600d6020528060005260406000206000915090508060000154908060010154908060020160009054906101000a900460ff1690806003018054600181600116156101000203166002900480601f016020809104026020016040519081016040528092919081815260200182805460018160011615610100020316600290048015611f2a5780601f10611eff57610100808354040283529160200191611f2a565b820191906000526020600020905b815481529060010190602001808311611f0d57829003601f168201915b505050505090806004018054600181600116156101000203166002900480601f016020809104026020016040519081016040528092919081815260200182805460018160011615610100020316600290048015611fc85780601f10611f9d57610100808354040283529160200191611fc8565b820191906000526020600020905b815481529060010190602001808311611fab57829003601f168201915b505050505090806005018054600181600116156101000203166002900480601f0160208091040260200160405190810160405280929190818152602001828054600181600116156101000203166002900480156120665780601f1061203b57610100808354040283529160200191612066565b820191906000526020600020905b81548152906001019060200180831161204957829003601f168201915b5050505050908060060160009054906101000a900473ffffffffffffffffffffffffffffffffffffffff16908060070160009054906101000a900473ffffffffffffffffffffffffffffffffffffffff16905088565b612112600e600083815260200190815260200160002060030160009054906101000a900473ffffffffffffffffffffffffffffffffffffffff16600e60008481526020019081526020016000206001015461147a565b6001600e600083815260200190815260200160002060040160146101000a81548160ff0219169083151502179055507f5c4f70ff596ce241d7ad104127f1259923c5986caf00b8e01cbd0759b5f01789600b54600e600084815260200190815260200160002060010154600e600085815260200190815260200160002060020154600e600086815260200190815260200160002060040160149054906101000a900460ff1660405180858152602001848152602001838152602001821515815260200194505050505060405180910390a150565b6121f76121f1612d05565b83612ddb565b61224c576040517f08c379a00000000000000000000000000000000000000000000000000000000081526004018080602001828103825260318152602001806143276031913960400191505060405180910390fd5b6122588484848461318c565b50505050565b606061226982612ce8565b6122be576040517f08c379a000000000000000000000000000000000000000000000000000000000815260040180806020018281038252602f8152602001806142d7602f913960400191505060405180910390fd5b6060600860008481526020019081526020016000208054600181600116156101000203166002900480601f0160208091040260200160405190810160405280929190818152602001828054600181600116156101000203166002900480156123675780601f1061233c57610100808354040283529160200191612367565b820191906000526020600020905b81548152906001019060200180831161234a57829003601f168201915b505050505090506060612378611726565b905060008151141561238e57819250505061252a565b60008251111561245f5780826040516020018083805190602001908083835b602083106123d057805182526020820191506020810190506020830392506123ad565b6001836020036101000a03801982511681845116808217855250505050505090500182805190602001908083835b6020831061242157805182526020820191506020810190506020830392506123fe565b6001836020036101000a038019825116818451168082178552505050505050905001925050506040516020818303038152906040529250505061252a565b80612469856131fe565b6040516020018083805190602001908083835b6020831061249f578051825260208201915060208101905060208303925061247c565b6001836020036101000a03801982511681845116808217855250505050505090500182805190602001908083835b602083106124f057805182526020820191506020810190506020830392506124cd565b6001836020036101000a03801982511681845116808217855250505050505090500192505050604051602081830303815290604052925050505b919050565b60606000826000811180156125465750600a548111155b61254f57600080fd5b6000600d600086815260200190815260200160002060060160009054906101000a900473ffffffffffffffffffffffffffffffffffffffff1690506000600c60008373ffffffffffffffffffffffffffffffffffffffff1673ffffffffffffffffffffffffffffffffffffffff16815260200190815260200160002080546001816001161561010002031660029004905011156126cc57600c60008273ffffffffffffffffffffffffffffffffffffffff1673ffffffffffffffffffffffffffffffffffffffff16815260200190815260200160002081818054600181600116156101000203166002900480601f0160208091040260200160405190810160405280929190818152602001828054600181600116156101000203166002900480156126bb5780601f10612690576101008083540402835291602001916126bb565b820191906000526020600020905b81548152906001019060200180831161269e57829003601f168201915b50505050509150935093505061270b565b60006040518060400160405280601681526020017f41646472657373206e6f74207265636f676e697a6564000000000000000000008152509093509350505b50915091565b6000600560008473ffffffffffffffffffffffffffffffffffffffff1673ffffffffffffffffffffffffffffffffffffffff16815260200190815260200160002060008373ffffffffffffffffffffffffffffffffffffffff1673ffffffffffffffffffffffffffffffffffffffff16815260200190815260200160002060009054906101000a900460ff16905092915050565b600082511180156127b7575060008151115b612829576040517f08c379a00000000000000000000000000000000000000000000000000000000081526004018080602001828103825260168152602001807f4e616d6520616e642066696c652072657175697265640000000000000000000081525060200191505060405180910390fd5b600a6000815480929190600101919050555061284733600a54613345565b612853600a5482613363565b604051806101000160405280600a54815260200160008152602001600015158152602001838152602001828152602001600c60003373ffffffffffffffffffffffffffffffffffffffff1673ffffffffffffffffffffffffffffffffffffffff1681526020019081526020016000208054600181600116156101000203166002900480601f0160208091040260200160405190810160405280929190818152602001828054600181600116156101000203166002900480156129565780601f1061292b57610100808354040283529160200191612956565b820191906000526020600020905b81548152906001019060200180831161293957829003601f168201915b505050505081526020013373ffffffffffffffffffffffffffffffffffffffff1681526020013373ffffffffffffffffffffffffffffffffffffffff16815250600d6000600a548152602001908152602001600020600082015181600001556020820151816001015560408201518160020160006101000a81548160ff02191690831515021790555060608201518160030190805190602001906129fb929190614041565b506080820151816004019080519060200190612a18929190614041565b5060a0820151816005019080519060200190612a35929190614041565b5060c08201518160060160006101000a81548173ffffffffffffffffffffffffffffffffffffffff021916908373ffffffffffffffffffffffffffffffffffffffff16021790555060e08201518160070160006101000a81548173ffffffffffffffffffffffffffffffffffffffff021916908373ffffffffffffffffffffffffffffffffffffffff1602179055509050507f93b9d3899bde294d97e3b920e2625a0c228e2d15c7582003fa8d7919892eafe4600a54600d6000600a548152602001908152602001600020600301600d6000600a54815260200190815260200160002060070160009054906101000a900473ffffffffffffffffffffffffffffffffffffffff1660405180848152602001806020018373ffffffffffffffffffffffffffffffffffffffff168152602001828103825284818154600181600116156101000203166002900481526020019150805460018160011615610100020316600290048015612be75780601f10612bbc57610100808354040283529160200191612be7565b820191906000526020600020905b815481529060010190602001808311612bca57829003601f168201915b505094505050505060405180910390a15050565b81600081118015612c0e5750600a548111155b612c1757600080fd5b6001600d600085815260200190815260200160002060020160006101000a81548160ff02191690831515021790555081600d6000858152602001908152602001600020600101819055507f399d1bbf1573fdd2b845f94bd2879461f126c41298aaebeca36a3f0e64db083a83600d600086815260200190815260200160002060010154600d600087815260200190815260200160002060020160009054906101000a900460ff16604051808481526020018381526020018215158152602001935050505060405180910390a1505050565b6000612cfe8260026133ed90919063ffffffff16565b9050919050565b600033905090565b816004600083815260200190815260200160002060006101000a81548173ffffffffffffffffffffffffffffffffffffffff021916908373ffffffffffffffffffffffffffffffffffffffff160217905550808273ffffffffffffffffffffffffffffffffffffffff16612d80836116e9565b73ffffffffffffffffffffffffffffffffffffffff167f8c5be1e5ebec7d5bd14f71427d1e84f3dd0314c0f7b2291e5b200ac8c7c3b92560405160405180910390a45050565b6000612dd482600001613407565b9050919050565b6000612de682612ce8565b612e3b576040517f08c379a000000000000000000000000000000000000000000000000000000000815260040180806020018281038252602c81526020018061417d602c913960400191505060405180910390fd5b6000612e46836116e9565b90508073ffffffffffffffffffffffffffffffffffffffff168473ffffffffffffffffffffffffffffffffffffffff161480612eb557508373ffffffffffffffffffffffffffffffffffffffff16612e9d846113df565b73ffffffffffffffffffffffffffffffffffffffff16145b80612ec65750612ec58185612711565b5b91505092915050565b8273ffffffffffffffffffffffffffffffffffffffff16612eef826116e9565b73ffffffffffffffffffffffffffffffffffffffff1614612f5b576040517f08c379a00000000000000000000000000000000000000000000000000000000081526004018080602001828103825260298152602001806142ae6029913960400191505060405180910390fd5b600073ffffffffffffffffffffffffffffffffffffffff168273ffffffffffffffffffffffffffffffffffffffff161415612fe1576040517f08c379a00000000000000000000000000000000000000000000000000000000081526004018080602001828103825260248152602001806141336024913960400191505060405180910390fd5b612fec838383613418565b612ff7600082612d0d565b61304881600160008673ffffffffffffffffffffffffffffffffffffffff1673ffffffffffffffffffffffffffffffffffffffff16815260200190815260200160002061341d90919063ffffffff16565b5061309a81600160008573ffffffffffffffffffffffffffffffffffffffff1673ffffffffffffffffffffffffffffffffffffffff16815260200190815260200160002061343790919063ffffffff16565b506130b1818360026134519092919063ffffffff16565b50808273ffffffffffffffffffffffffffffffffffffffff168473ffffffffffffffffffffffffffffffffffffffff167fddf252ad1be2c89b69c2b068fc378daa952ba7f163c4a11628f55a4df523b3ef60405160405180910390a4505050565b60006131218360000183613486565b60001c905092915050565b60008060008061313f8660000186613509565b915091508160001c8160001c9350935050509250929050565b600061316b846000018460001b846135a2565b60001c90509392505050565b600061318582600001613698565b9050919050565b613197848484612ecf565b6131a3848484846136a9565b6131f8576040517f08c379a00000000000000000000000000000000000000000000000000000000081526004018080602001828103825260328152602001806141016032913960400191505060405180910390fd5b50505050565b60606000821415613246576040518060400160405280600181526020017f30000000000000000000000000000000000000000000000000000000000000008152509050613340565b600082905060005b60008214613270578080600101915050600a828161326857fe5b04915061324e565b60608167ffffffffffffffff8111801561328957600080fd5b506040519080825280601f01601f1916602001820160405280156132bc5781602001600182028036833780820191505090505b50905060006001830390508593505b6000841461333857600a84816132dd57fe5b0660300160f81b828280600190039350815181106132f757fe5b60200101907effffffffffffffffffffffffffffffffffffffffffffffffffffffffffffff1916908160001a905350600a848161333057fe5b0493506132cb565b819450505050505b919050565b61335f8282604051806020016040528060008152506138c2565b5050565b61336c82612ce8565b6133c1576040517f08c379a000000000000000000000000000000000000000000000000000000000815260040180806020018281038252602c815260200180614282602c913960400191505060405180910390fd5b806008600084815260200190815260200160002090805190602001906133e8929190614041565b505050565b60006133ff836000018360001b613933565b905092915050565b600081600001805490509050919050565b505050565b600061342f836000018360001b613956565b905092915050565b6000613449836000018360001b613a3e565b905092915050565b600061347d846000018460001b8473ffffffffffffffffffffffffffffffffffffffff1660001b613aae565b90509392505050565b6000818360000180549050116134e7576040517f08c379a00000000000000000000000000000000000000000000000000000000081526004018080602001828103825260228152602001806140df6022913960400191505060405180910390fd5b8260000182815481106134f657fe5b9060005260206000200154905092915050565b6000808284600001805490501161356b576040517f08c379a00000000000000000000000000000000000000000000000000000000081526004018080602001828103825260228152602001806142346022913960400191505060405180910390fd5b600084600001848154811061357c57fe5b906000526020600020906002020190508060000154816001015492509250509250929050565b60008084600101600085815260200190815260200160002054905060008114158390613669576040517f08c379a00000000000000000000000000000000000000000000000000000000081526004018080602001828103825283818151815260200191508051906020019080838360005b8381101561362e578082015181840152602081019050613613565b50505050905090810190601f16801561365b5780820380516001836020036101000a031916815260200191505b509250505060405180910390fd5b5084600001600182038154811061367c57fe5b9060005260206000209060020201600101549150509392505050565b600081600001805490509050919050565b60006136ca8473ffffffffffffffffffffffffffffffffffffffff16613b8a565b6136d757600190506138ba565b606061384163150b7a0260e01b6136ec612d05565b888787604051602401808573ffffffffffffffffffffffffffffffffffffffff1681526020018473ffffffffffffffffffffffffffffffffffffffff16815260200183815260200180602001828103825283818151815260200191508051906020019080838360005b83811015613770578082015181840152602081019050613755565b50505050905090810190601f16801561379d5780820380516001836020036101000a031916815260200191505b5095505050505050604051602081830303815290604052907bffffffffffffffffffffffffffffffffffffffffffffffffffffffff19166020820180517bffffffffffffffffffffffffffffffffffffffffffffffffffffffff8381831617835250505050604051806060016040528060328152602001614101603291398773ffffffffffffffffffffffffffffffffffffffff16613b9d9092919063ffffffff16565b9050600081806020019051602081101561385a57600080fd5b8101908080519060200190929190505050905063150b7a0260e01b7bffffffffffffffffffffffffffffffffffffffffffffffffffffffff1916817bffffffffffffffffffffffffffffffffffffffffffffffffffffffff191614925050505b949350505050565b6138cc8383613bb5565b6138d960008484846136a9565b61392e576040517f08c379a00000000000000000000000000000000000000000000000000000000081526004018080602001828103825260328152602001806141016032913960400191505060405180910390fd5b505050565b600080836001016000848152602001908152602001600020541415905092915050565b60008083600101600084815260200190815260200160002054905060008114613a3257600060018203905060006001866000018054905003905060008660000182815481106139a157fe5b90600052602060002001549050808760000184815481106139be57fe5b90600052602060002001819055506001830187600101600083815260200190815260200160002081905550866000018054806139f657fe5b60019003818190600052602060002001600090559055866001016000878152602001908152602001600020600090556001945050505050613a38565b60009150505b92915050565b6000613a4a8383613da9565b613aa3578260000182908060018154018082558091505060019003906000526020600020016000909190919091505582600001805490508360010160008481526020019081526020016000208190555060019050613aa8565b600090505b92915050565b6000808460010160008581526020019081526020016000205490506000811415613b5557846000016040518060400160405280868152602001858152509080600181540180825580915050600190039060005260206000209060020201600090919091909150600082015181600001556020820151816001015550508460000180549050856001016000868152602001908152602001600020819055506001915050613b83565b82856000016001830381548110613b6857fe5b90600052602060002090600202016001018190555060009150505b9392505050565b600080823b905060008111915050919050565b6060613bac8484600085613dcc565b90509392505050565b600073ffffffffffffffffffffffffffffffffffffffff168273ffffffffffffffffffffffffffffffffffffffff161415613c58576040517f08c379a00000000000000000000000000000000000000000000000000000000081526004018080602001828103825260208152602001807f4552433732313a206d696e7420746f20746865207a65726f206164647265737381525060200191505060405180910390fd5b613c6181612ce8565b15613cd4576040517f08c379a000000000000000000000000000000000000000000000000000000000815260040180806020018281038252601c8152602001807f4552433732313a20746f6b656e20616c7265616479206d696e7465640000000081525060200191505060405180910390fd5b613ce060008383613418565b613d3181600160008573ffffffffffffffffffffffffffffffffffffffff1673ffffffffffffffffffffffffffffffffffffffff16815260200190815260200160002061343790919063ffffffff16565b50613d48818360026134519092919063ffffffff16565b50808273ffffffffffffffffffffffffffffffffffffffff16600073ffffffffffffffffffffffffffffffffffffffff167fddf252ad1be2c89b69c2b068fc378daa952ba7f163c4a11628f55a4df523b3ef60405160405180910390a45050565b600080836001016000848152602001908152602001600020541415905092915050565b606082471015613e27576040517f08c379a00000000000000000000000000000000000000000000000000000000081526004018080602001828103825260268152602001806141576026913960400191505060405180910390fd5b613e3085613b8a565b613ea2576040517f08c379a000000000000000000000000000000000000000000000000000000000815260040180806020018281038252601d8152602001807f416464726573733a2063616c6c20746f206e6f6e2d636f6e747261637400000081525060200191505060405180910390fd5b600060608673ffffffffffffffffffffffffffffffffffffffff1685876040518082805190602001908083835b60208310613ef25780518252602082019150602081019050602083039250613ecf565b6001836020036101000a03801982511681845116808217855250505050505090500191505060006040518083038185875af1925050503d8060008114613f54576040519150601f19603f3d011682016040523d82523d6000602084013e613f59565b606091505b5091509150613f69828286613f75565b92505050949350505050565b60608315613f855782905061403a565b600083511115613f985782518084602001fd5b816040517f08c379a00000000000000000000000000000000000000000000000000000000081526004018080602001828103825283818151815260200191508051906020019080838360005b83811015613fff578082015181840152602081019050613fe4565b50505050905090810190601f16801561402c5780820380516001836020036101000a031916815260200191505b509250505060405180910390fd5b9392505050565b828054600181600116156101000203166002900490600052602060002090601f016020900481019282601f1061408257805160ff19168380011785556140b0565b828001600101855582156140b0579182015b828111156140af578251825591602001919060010190614094565b5b5090506140bd91906140c1565b5090565b5b808211156140da5760008160009055506001016140c2565b509056fe456e756d657261626c655365743a20696e646578206f7574206f6620626f756e64734552433732313a207472616e7366657220746f206e6f6e20455243373231526563656976657220696d706c656d656e7465724552433732313a207472616e7366657220746f20746865207a65726f2061646472657373416464726573733a20696e73756666696369656e742062616c616e636520666f722063616c6c4552433732313a206f70657261746f7220717565727920666f72206e6f6e6578697374656e7420746f6b656e4552433732313a20617070726f76652063616c6c6572206973206e6f74206f776e6572206e6f7220617070726f76656420666f7220616c6c4552433732313a2062616c616e636520717565727920666f7220746865207a65726f20616464726573734552433732313a206f776e657220717565727920666f72206e6f6e6578697374656e7420746f6b656e456e756d657261626c654d61703a20696e646578206f7574206f6620626f756e64734552433732313a20617070726f76656420717565727920666f72206e6f6e6578697374656e7420746f6b656e4552433732314d657461646174613a2055524920736574206f66206e6f6e6578697374656e7420746f6b656e4552433732313a207472616e73666572206f6620746f6b656e2074686174206973206e6f74206f776e4552433732314d657461646174613a2055524920717565727920666f72206e6f6e6578697374656e7420746f6b656e4552433732313a20617070726f76616c20746f2063757272656e74206f776e65724552433732313a207472616e736665722063616c6c6572206973206e6f74206f776e6572206e6f7220617070726f766564a2646970667358221220ece9981b9e100378e4fcf7e061f91c5747b5ab139831d024c37a671c7ad2719b64736f6c63430007010033",
  "immutableReferences": {},
  "source": "// SPDX-License-Identifier: MIT\r\npragma solidity >=0.5.0 <0.9.0;\r\n\r\nimport \"@openzeppelin/contracts/token/ERC721/ERC721.sol\";\r\n\r\ncontract NFTbeats is ERC721 {\r\n  \r\n    constructor() ERC721(\"NFTbeats\", \"BEATS\") {}\r\n\r\n    modifier idExists(uint id) {\r\n        require(id > 0 && id <= tCount);\r\n        _;\r\n    }\r\n\r\n    uint public tCount;\r\n    uint public oCount;\r\n    \r\n    mapping(address => string) artists;\r\n    mapping(uint => Track) public tracks;\r\n    mapping(uint => Offer) public offers;\r\n\r\n    struct Track {\r\n        uint id;\r\n        uint price;\r\n        bool isListed;\r\n        string name;\r\n        string filecid;\r\n        string aName;\r\n        address artist;\r\n        address payable owner;\r\n    }\r\n\r\n    struct Offer {\r\n        uint id;\r\n        uint trackID;\r\n        uint offerAmount;\r\n        address bidder;\r\n        address auctioneer;\r\n        bool isApproved;\r\n    }\r\n\r\n    event createdTrack(\r\n        uint id, \r\n        string name, \r\n        address owner\r\n    );\r\n\r\n    event setTrackPrice(\r\n        uint id, \r\n        uint newPrice, \r\n        bool listed\r\n    );\r\n\r\n    event offerApproved(\r\n        uint id,\r\n        uint trackID, \r\n        uint amount, \r\n        bool approved\r\n    );\r\n\r\n    event boughtTrack(\r\n        uint id, \r\n        address buyer\r\n    );\r\n\r\n    function registerArtist(string memory _name) external {\r\n        artists[msg.sender] = _name;\r\n    }\r\n\r\n    function verifyCreator(uint _id) \r\n        external \r\n        view \r\n        idExists(_id)\r\n        returns (string memory, address) \r\n    {\r\n        address creator = tracks[_id].artist;\r\n        if(bytes(artists[creator]).length > 0) {\r\n            return (artists[creator], creator);\r\n        } else {\r\n            return(\"Address not recognized\", address(0));\r\n        }\r\n    }\r\n\r\n    function createTrack(\r\n        string memory _name, \r\n        string memory _filecid\r\n    )   external {\r\n        require(bytes(_name).length > 0 && bytes(_filecid).length > 0, \"Name and file required\");\r\n        tCount++;\r\n        _safeMint(msg.sender, tCount);\r\n        _setTokenURI(tCount, _filecid);\r\n        tracks[tCount] = Track(tCount, 0, false, _name, _filecid, artists[msg.sender], msg.sender, msg.sender);\r\n        emit createdTrack(tCount, tracks[tCount].name, tracks[tCount].owner);\r\n    }    \r\n\r\n    function setPrice(\r\n        uint _id, \r\n        uint _price\r\n    )   external \r\n        idExists(_id)\r\n    {\r\n        tracks[_id].isListed = true;\r\n        tracks[_id].price = _price;\r\n        emit setTrackPrice(_id, tracks[_id].price, tracks[_id].isListed);\r\n    } \r\n\r\n    function makeOffer(\r\n        uint _tid, \r\n        uint _amount\r\n    ) \r\n        external \r\n        payable \r\n        idExists(_tid)\r\n    {\r\n        require(_amount > tracks[_tid].price, \"Invalid offer\");\r\n        oCount++;    \r\n        offers[oCount] = Offer(oCount, _tid, _amount, msg.sender, tracks[_tid].owner, false);\r\n    }\r\n\r\n    function approveOffer(uint _id) external {\r\n        approve(offers[_id].bidder, offers[_id].trackID);\r\n        offers[_id].isApproved = true;\r\n        emit offerApproved(oCount, offers[_id].trackID, offers[_id].offerAmount, offers[_id].isApproved);\r\n    }\r\n  \r\n    function buyTrack(uint _id)\r\n        external\r\n        payable\r\n        idExists(_id) \r\n    {\r\n        (bool paid,) = tracks[_id].owner.call{ value: msg.value }(\"\");\r\n        require(paid == true, \"Not sent\");\r\n        safeTransferFrom(tracks[_id].owner, msg.sender, _id);\r\n        tracks[_id].owner = msg.sender;\r\n        tracks[_id].isListed = false;\r\n        emit boughtTrack(_id, tracks[_id].owner);\r\n    }\r\n}\r\n",
  "sourcePath": "C:/Users/Abel Simon Zachariah/Projects/NFT-Beats/contracts/NFTbeats.sol",
  "compiler": {
    "name": "solc",
    "version": "0.7.1+commit.f4a555be.Emscripten.clang"
  },
  "schemaVersion": "3.3.4",
  "updatedAt": "2021-09-04T16:30:06.422Z",
  "networkType": "ethereum",
  "devdoc": {
    "kind": "dev",
    "methods": {
      "approve(address,uint256)": {
        "details": "See {IERC721-approve}."
      },
      "balanceOf(address)": {
        "details": "See {IERC721-balanceOf}."
      },
      "baseURI()": {
        "details": "Returns the base URI set via {_setBaseURI}. This will be automatically added as a prefix in {tokenURI} to each token's URI, or to the token ID if no specific URI is set for that token ID."
      },
      "getApproved(uint256)": {
        "details": "See {IERC721-getApproved}."
      },
      "isApprovedForAll(address,address)": {
        "details": "See {IERC721-isApprovedForAll}."
      },
      "name()": {
        "details": "See {IERC721Metadata-name}."
      },
      "ownerOf(uint256)": {
        "details": "See {IERC721-ownerOf}."
      },
      "safeTransferFrom(address,address,uint256)": {
        "details": "See {IERC721-safeTransferFrom}."
      },
      "safeTransferFrom(address,address,uint256,bytes)": {
        "details": "See {IERC721-safeTransferFrom}."
      },
      "setApprovalForAll(address,bool)": {
        "details": "See {IERC721-setApprovalForAll}."
      },
      "supportsInterface(bytes4)": {
        "details": "See {IERC165-supportsInterface}. Time complexity O(1), guaranteed to always use less than 30 000 gas."
      },
      "symbol()": {
        "details": "See {IERC721Metadata-symbol}."
      },
      "tokenByIndex(uint256)": {
        "details": "See {IERC721Enumerable-tokenByIndex}."
      },
      "tokenOfOwnerByIndex(address,uint256)": {
        "details": "See {IERC721Enumerable-tokenOfOwnerByIndex}."
      },
      "tokenURI(uint256)": {
        "details": "See {IERC721Metadata-tokenURI}."
      },
      "totalSupply()": {
        "details": "See {IERC721Enumerable-totalSupply}."
      },
      "transferFrom(address,address,uint256)": {
        "details": "See {IERC721-transferFrom}."
      }
    },
    "version": 1
  },
  "userdoc": {
    "kind": "user",
    "methods": {},
    "version": 1
  }
}